S00B00004156522E7372656330
S11300000C942A000C948F000C94B8000C94E1001A
S11300100C9447000C9447000C9447000C94470040
S11300200C9447000C9447000C9447000C94470030
S11300300C9447000C9446020C9447000C9447001F
S11300400C9447000C9447000C9447000C94470010
S11300500C94470011241FBECFE5D8E0DEBFCDBF0E
S113006010E0A0E6B0E0E4EBF8E002C005900D92E9
S1130070A036B107D9F720E0A0E6B0E001C01D9298
S1130080A636B207E1F70E9449000C9458040C9478
S113009000000E940A0160E875E280E090E00E949E
S11300A0CB0182E40E94290190E00E944202F9CF30
S11300B08234A1F018F4813431F008958334C9F006
S11300C0843411F108952BB381E090E002C0880FCD
S11300D0991F6A95E2F782278BBB089528B381E0C4
S11300E090E002C0880F991F6A95E2F7822788BBC7
S11300F0089525B381E090E002C0880F991F6A95A6
S1130100E2F7822785BB089522B381E090E002C024
S1130110880F991F6A95E2F7822782BB08951F9280
S11301200F920FB60F9211242F933F934F935F9327
S11301306F937F938F939F93AF93BF93EF93FF93AB
S1130140E0916400F0916500309709F00995FF9102
S1130150EF91BF91AF919F918F917F916F915F913B
S11301604F913F912F910F900FBE0F901F901895B4
S11301701F920F920FB60F9211242F933F934F9318
S11301805F936F937F938F939F93AF93BF93EF93FB
S1130190FF93E0916200F0916300309709F00995B4
S11301A0FF91EF91BF91AF919F918F917F916F914B
S11301B05F914F913F912F910F900FBE0F901F9021
S11301C018951F920F920FB60F9211242F933F93FD
S11301D04F935F936F937F938F939F93AF93BF934B
S11301E0EF93FF93E0916000F0916100309709F084
S11301F00995FF91EF91BF91AF919F918F917F915D
S11302006F915F914F913F912F910F900FBE0F907F
S11302101F90189587B38F7D87BB87B38F7787BB74
S113022087B38F7E87BB87B3806487BB8DB18064BF
S11302308DB98DB18F778DB98DB180628DB98DB146
S1130240877F8DB98DB18B7F8DB98DB18F7E8DB93F
S113025008958FB9779BFECF88B3806188BB0895DA
S11302608F929F92AF92BF92CF92DF92EF92FF92C2
S11302706B017C01DC01CB01880F991FAA1FBB1FF6
S1130280880F991FAA1FBB1FBC01CD01660F771FE2
S1130290881F991F660F771F881F991F0E947F036D
S11302A09B01AC0160E074E284E79BE40E94DE02FF
S11302B020E030E040E85FE30E946C024B015C0107
S11302C00E94500380E090E00E947F039B01AC01F8
S11302D0C501B4010E946C0220E030E040E05FE31D
S11302E00E943104882354F020E030E040E85FE3CA
S11302F0C501B4010E946D024B015C01C501B4014A
S11303000E9450036F5F7F4F62957295707F7627CE
S1130310607F76279B0140E050E060E074E284EF68
S113032090E00E943604CA01B9010E947F034B0188
S11303305C01C701B6010E947F039B01AC01C501AA
S1130340B4010E94DE0220E030E040E85FE30E9456
S11303506C026B017C012AE037ED43E25CE30E940E
S1130360D902181664F02AE037ED43E25CEBC701CA
S1130370B6010E943104882324F480E003C080E0A5
S113038001C081E0FF90EF90DF90CF90BF90AF90DD
S11303909F908F900895CF92DF92EF92FF926B011E
S11303A07C010E943001882351F18BB18D7F8BB980
S11303B0D701C601880F991FAA1FBB1F880F991F59
S11303C0AA1FBB1FBC01CD01660F771F881F991F91
S11303D0660F771F881F991F0E947F039B01AC0142
S11303E060E074E284E79BE40E94DE0220E030E0F7
S11303F040E85FE30E946C020E94500325C08BB169
S113040082608BB9D701C601880F991FAA1FBB1F31
S1130410880F991FAA1FBB1FBC01CD01660F771F50
S1130420881F991F0E947F039B01AC0160E074E266
S113043084E79BE40E94DE0220E030E040E85FE3D2
S11304400E946C020E94500370BD69B98FB7806826
S11304508FBF8AB180688AB98AB18F7B8AB98AB121
S11304608F7D8AB98AB18B7F8AB98AB188608AB94B
S11304708AB180618AB986E880BDFF90EF90DF90F1
S1130480CF9008955D9BFECF8CB908951F920F9273
S11304900FB60F9211242F933F934F935F936F9353
S11304A07F938F939F93AF93BF93EF93FF9365E0F5
S11304B083E40E945800FF91EF91BF91AF919F9107
S11304C08F917F916F915F914F913F912F910F90F9
S11304D00FBE0F901F9018955058BB27AA270E9453
S11304E084020C94F7030E94E90338F00E94F0039D
S11304F020F039F49F3F19F426F40C94E6030EF42B
S1130500E095E7FB0C94E003E92F0E94080458F3FC
S1130510BA17620773078407950720F079F4A6F5E4
S11305200C942A040EF4E0950B2EBA2FA02D0B0187
S1130530B90190010C01CA01A0011124FF27591B24
S113054099F0593F50F4503E68F11A16F040A22F2A
S1130550232F342F4427585FF3CF4695379527959B
S1130560A795F0405395C9F77EF41F16BA0B620B9A
S1130570730B840BBAF09150A1F0FF0FBB1F661FE1
S1130580771F881FC2F70EC0BA0F621F731F841F24
S113059048F4879577956795B795F7959E3F08F04A
S11305A0B0CF9395880F08F09927EE0F979587950C
S11305B008950E94BC0308F481E008950E94F202A9
S11305C00C94F7030E94F00358F00E94E90340F0F2
S11305D029F45F3F29F00C94E00351110C942B048F
S11305E00C94E6030E94080468F39923B1F355239D
S11305F091F3951B550BBB27AA2762177307840732
S113060038F09F5F5F4F220F331F441FAA1FA9F3C7
S113061035D00E2E3AF0E0E832D091505040E695B5
S1130620001CCAF72BD0FE2F29D0660F771F881F16
S1130630BB1F261737074807AB07B0E809F0BB0B09
S1130640802DBF01FF2793585F4F3AF09E3F51051D
S113065078F00C94E0030C942B045F3FE4F3983E91
S1130660D4F3869577956795B795F7959F5FC9F706
S1130670880F911D9695879597F90895E1E0660F87
S1130680771F881FBB1F621773078407BA0720F000
S1130690621B730B840BBA0BEE1F88F7E095089569
S11306A00E94100488F09F5798F0B92F9927B751EA
S11306B0B0F0E1F0660F771F881F991F1AF0BA9502
S11306C0C9F714C0B13091F00E942A04B1E0089532
S11306D00C942A04672F782F8827B85F39F0B93F24
S11306E0CCF3869577956795B395D9F73EF49095B5
S11306F08095709561957F4F8F4F9F4F0895E89433
S113070009C097FB3EF490958095709561957F4F55
S11307108F4F9F4F9923A9F0F92F96E9BB27939503
S1130720F695879577956795B795F111F8CFFAF413
S1130730BB0F11F460FF1BC06F5F7F4F8F4F9F4F44
S113074016C0882311F096E911C0772321F09EE8A2
S1130750872F762F05C0662371F096E8862F70E008
S113076060E02AF09A95660F771F881FDAF7880FE2
S11307709695879597F90895990F0008550FAA0B38
S1130780E0E8FEEF16161706E807F907C0F01216A0
S11307901306E407F50798F0621B730B840B950BA3
S11307A039F40A2661F0232B242B252B21F40895F8
S11307B00A2609F4A140A6958FEF811D811D089595
S11307C097F99F6780E870E060E008959FEF80EC00
S11307D0089500240A9416161706180609060895A3
S11307E000240A9412161306140605060895092E09
S11307F00394000C11F4882352F0BB0F40F4BF2B78
S113080011F460FF04C06F5F7F4F8F4F9F4F0895B7
S113081057FD9058440F551F59F05F3F71F04795AD
S1130820880F97FB991F61F09F3F79F08795089592
S1130830121613061406551FF2CF4695F1DF08C0B1
S1130840161617061806991FF1CF869571056105CE
S113085008940895E894BB2766277727CB0197F976
S113086008950E94BC0308F48FEF0895A1E21A2EA4
S1130870AA1BBB1BFD010DC0AA1FBB1FEE1FFF1F40
S1130880A217B307E407F50720F0A21BB30BE40B90
S1130890F50B661F771F881F991F1A9469F76095D7
S11308A07095809590959B01AC01BD01CF01089591
S10708B0F894FFCFE6
S9030000FC
