S012000043616C63756C61746F722E7372656308
S11300000C942A000C94FD040C9426050C944F05C2
S11300100C9447000C9447000C9447000C94470040
S11300200C9447000C9447000C9447000C94470030
S11300300C9447000C9447000C9447000C94470020
S11300400C9447000C9447000C9447000C94470010
S11300500C94470011241FBECFE5D8E0DEBFCDBF0E
S113006010E0A0E6B0E0ECEEF0E102C005900D92E5
S1130070AC37B107D9F720E0ACE7B0E001C01D927E
S1130080A939B207E1F70E9487030C9474080C9411
S113009000008DE30E940C0381E080937D000895AD
S11300A0860F971F0895861B970B08959C01269F22
S11300B0C001279F900D369F900D112408950E9432
S11300C07605CB0108950E947605089580538A3001
S11300D010F481E0089580E008958B3251F08D3260
S11300E051F08A3251F08F3251F0853251F481E06F
S11300F0089581E0089581E0089581E0089581E004
S1130100089580E00895833411F481E0089580E037
S1130110089580917E008B3271F038F4853209F4B1
S11301207EC08A3209F441C097C08D3209F18F3202
S113013009F458C091C060917F0070918000809153
S11301408100909182000E9450009F938F9380E7DA
S113015090E09F938F9389E890E09F938F930E9400
S11301608A050F900F900F900F900F900F900895A5
S113017060917F0070918000809181009091820055
S11301800E9453009F938F9380E790E09F938F93F7
S113019089E890E09F938F930E948A050F900F90B7
S11301A00F900F900F900F90089560917F007091C1
S11301B0800080918100909182000E9456009F935C
S11301C08F9380E790E09F938F9389E890E09F93CB
S11301D08F930E948A050F900F900F900F900F90AD
S11301E00F90089560917F0070918000809181004C
S11301F0909182000E945F009F938F9380E790E02C
S11302009F938F9389E890E09F938F930E948A0530
S11302100F900F900F900F900F900F900895609192
S11302207F007091800080918100909182000E94F3
S113023063009F938F9380E790E09F938F9389E867
S113024090E09F938F930E948A050F900F900F90D8
S11302500F900F900F900895809182008F9380915A
S113026081008F9380E790E09F938F9389E890E0DB
S11302709F938F930E948A050F900F900F900F9079
S11302800F900F90089541E062E084E40E94060418
S11302900E94E7010E94E8020E94DF0440E050E06F
S11302A060E070E089E490E00E94F0040E94E304BE
S11302B00895CF930E94140280937C00E82FF0E00D
S11302C0E05AFF4FC0818C2F0E948300882379F06D
S11302D00E946D031092820010928100109280009F
S11302E010927F0010927E0010927D0061C08C2FCE
S11302F00E946600882309F447C080917D00811123
S113030043C08C2F0E940C0380917E0081111DC07C
S113031080918100909182009C01220F331F880FED
S1130320991F880F991F880F991F820F931FE091BF
S11303307C00F0E0E05AFF4F2081820F911DC097AE
S1130340909382008093810033C0882389F1809147
S11303507F00909180009C01220F331F880F991F0A
S1130360880F991F880F991F820F931FE0917C00BB
S1130370F0E0E05AFF4F2081820F911DC0979093C7
S1130380800080937F0014C08C2F0E946D0088230E
S113039079F080917D0081110BC08C2F0E940C0399
S11303A0E0917C00F0E0E05AFF4F808180937E0072
S11303B080917D00813049F40E94890089E890E0B1
S11303C00E94740382E080937D00CF9108951F936F
S11303D0CF93DF9310E00FC0C12FD0E0C958DF4F97
S11303E041E0688183E40E948C0341E0688183E4F6
S11303F00E9406041F5F143078F310E00FC0C12F71
S1130400D0E0CD58DF4F40E0688184E40E948C0343
S113041041E0688184E40E9406041F5F143078F38D
S1130420DF91CF911F910895CF92DF92EF92FF92C7
S11304300F931F93CF93DF93E12C57C0CE2CD12C75
S1130440F601E958FF4F40E0608183E40E9406040E
S1130450F12C3EC00F2D10E0F801ED58FF4F6081E4
S113046084E40E94AF048823F1F031C0F801ED5810
S1130470FF4F608184E40E94AF04811102C0DF5FFA
S11304800AC0F801ED58FF4F608184E40E94AF0474
S1130490813009F4D0E083EC99E00197F1F700C0D2
S11304A00000CF5F02C0C0E0D0E0C830F8F2D43022
S11304B070F0F801ED58FF4F608184E40E94AF04AE
S11304C08823B9F38E2D880F880F8F0D13C0F394F2
S11304D093E09F1508F0BECFF601E958FF4F41E0C5
S11304E0608183E40E940604E39483E08E1508F09F
S11304F0A5CF8FEFDF91CF911F910F91FF90EF90D8
S1130500DF90CF900895CF93C82F84FB442740F900
S113051060E082E40E940604C5FB442740F961E0E0
S113052082E40E940604C6FB442740F962E082E4A8
S11305300E9406044C2F441F4427441F64E082E4B5
S11305400E94060440E063E081E40E94060441E066
S113055062E081E40E940604000040E062E081E47D
S11305600E9406048DEE92E00197F1F700C00000AE
S11305704C2F417060E082E40E940604C1FB4427D2
S113058040F961E082E40E940604C2FB442740F97A
S113059062E082E40E940604C3FB442740F964E05D
S11305A082E40E94060441E062E081E40E940604C1
S11305B000C000C0000040E062E081E40E94060444
S11305C08DEE92E00197F1F700C00000CF910895FD
S11305D061E082E40E94800441E063E081E40E94DF
S11305E08C0341E062E081E40E948C038FE097E297
S11305F00197F1F700C0000082E30E94830280E2C9
S11306000E9483028EE00E94830286E00E9483029D
S113061081E00E9483020895CF93C82F84FB44276E
S113062040F960E082E40E940604C5FB442740F9D7
S113063061E082E40E940604C6FB442740F962E0BC
S113064082E40E9406044C2F441F4427441F64E0A4
S113065082E40E94060441E063E081E40E9406040F
S113066041E062E081E40E940604000040E062E0B0
S113067081E40E94060482E48A95F1F700C04C2FBD
S1130680417060E082E40E940604C1FB442740F903
S113069061E082E40E940604C2FB442740F962E060
S11306A082E40E940604C3FB442740F964E082E428
S11306B00E94060441E062E081E40E940604000016
S11306C040E062E081E40E94060483EF91E0019738
S11306D0F1F700C00000CF91089581E00E948302E9
S11306E080E80E94830208950F931F93CF938C0197
S11306F0C0E003C00E940C03CF5FF801EC0FF11DB2
S113070080818111F7CFCF911F910F9108950E949D
S113071043010E945901FDCF823431F118F4813430
S113072039F008958334E1F1843409F454C0089510
S113073041110CC02AB381E090E002C0880F991FD8
S11307406A95E2F7809582238ABB0895413009F0C7
S11307505CC02AB381E090E002C0880F991F6A95BB
S1130760E2F7822B8ABB089541110CC027B381E0C4
S113077090E002C0880F991F6A95E2F78095822362
S113078087BB0895413009F040C027B381E090E071
S113079002C0880F991F6A95E2F7822B87BB0895E0
S11307A041110CC024B381E090E002C0880F991F6E
S11307B06A95E2F78095822384BB0895413029F538
S11307C024B381E090E002C0880F991F6A95E2F794
S11307D0822B84BB089541110CC021B381E090E0C9
S11307E002C0880F991F6A95E2F78095822381BB26
S11307F00895413051F421B381E090E002C0880FA4
S1130800991F6A95E2F7822B81BB0895823431F1F6
S113081018F4813439F008958334E1F1843409F40F
S113082054C0089541110CC02BB381E090E002C084
S1130830880F991F6A95E2F7809582238BBB0895F0
S1130840413009F05CC02BB381E090E002C0880F16
S1130850991F6A95E2F7822B8BBB089541110CC056
S113086028B381E090E002C0880F991F6A95E2F7EF
S11308708095822388BB0895413009F040C028B395
S113088081E090E002C0880F991F6A95E2F7822BFD
S113089088BB089541110CC025B381E090E002C0EB
S11308A0880F991F6A95E2F78095822385BB089586
S11308B0413029F525B381E090E002C0880F991FEB
S11308C06A95E2F7822B85BB089541110CC022B3CF
S11308D081E090E002C0880F991F6A95E2F7809545
S11308E0822382BB0895413051F422B381E090E029
S11308F002C0880F991F6A95E2F7822B82BB089584
S1130900823491F018F4813431F008958334A9F0DD
S11309108434E1F00895611102C01ABA0895613077
S1130920E9F48FEF8ABB0895611102C017BA0895E4
S11309306130A1F48FEF87BB0895611102C014BA2E
S11309400895613059F48FEF84BB0895611102C09A
S113095011BA0895613011F48FEF81BB0895823488
S113096091F018F4813431F029C08334A9F084342F
S1130970E1F024C089B390E002C0959587956A950B
S1130980E2F78170089586B390E002C0959587954B
S11309906A95E2F78170089583B390E002C095955B
S11309A087956A95E2F78170089580B390E002C05C
S11309B0959587956A95E2F781700895089581B3B6
S11309C08B7F81BB08958FB780688FBF8BB780649E
S11309D08BBF85B78E7F85BF85B7826085BF08953D
S11309E090938800809387007093860060938500BD
S11309F0509384004093830008951F920F920FB682
S1130A000F9211242F933F934F935F936F937F9390
S1130A108F939F93AF93BF93EF93FF93E0918700DE
S1130A20F0918800309709F00995FF91EF91BF91FB
S1130A30AF919F918F917F916F915F914F913F9172
S1130A402F910F900FBE0F901F9018951F920F9229
S1130A500FB60F9211242F933F934F935F936F938D
S1130A607F938F939F93AF93BF93EF93FF93E09103
S1130A708500F0918600309709F00995FF91EF9178
S1130A80BF91AF919F918F917F916F915F914F91A2
S1130A903F912F910F900FBE0F901F9018951F92AA
S1130AA00F920FB60F9211242F933F934F935F939E
S1130AB06F937F938F939F93AF93BF93EF93FF9322
S1130AC0E0918300F09184000995FF91EF91BF912B
S1130AD0AF919F918F917F916F915F914F913F91D2
S1130AE02F910F900FBE0F901F901895AA1BBB1B40
S1130AF051E107C0AA1FBB1FA617B70710F0A61B1A
S1130B00B70B881F991F5A95A9F780959095BC013A
S1130B10CD010895AEE0B0E0E0E9F5E00C944B08B7
S1130B200D891E8986E08C831A8309838FEF9FE7E2
S1130B309E838D83AE01475E5F4F6F89788DCE01B2
S1130B4001960E94AC05EF81F885E00FF11F108239
S1130B502E96E4E00C946708ABE0B0E0E2EBF5E03D
S1130B600C943D086C017B018A01FC0117821682FA
S1130B70838181FFCCC1CE0101963C01F6019381B2
S1130B80F70193FD859193FF81917F01882309F4F7
S1130B90BAC1853239F493FD859193FF81917F0128
S1130BA0853229F4B60190E00E94A307E7CF912C87
S1130BB0212C312CFFE1F315D8F08B3279F038F485
S1130BC0803279F08332A1F4232D20611DC08D324F
S1130BD061F0803369F4232D216016C0832D826077
S1130BE0382EE32DE4603E2E2AC0F32DF8601DC09C
S1130BF037FC2DC020ED280F2A3040F08E32B9F496
S1130C0036FC81C1232D2064322E19C036FE06C065
S1130C108AE0989E200D1124922E11C0EAE02E9EA7
S1130C20200D1124222EF32DF0623F2E08C08C36A5
S1130C3021F4832D8068382E02C0883641F4F701F0
S1130C4093FD859193FF81917F018111B3CF982FFB
S1130C509F7D9554933028F40C5F1F4F9FE3998335
S1130C600DC0833631F0833771F0833509F059C0F4
S1130C7021C0F801808189830E5F1F4F88248394EB
S1130C80912C530113C02801F2E04F0E511CF801BE
S1130C90A080B18036FE03C0692D70E002C06FEF02
S1130CA07FEFC5010E9498074C018201F32DFF7765
S1130CB03F2E16C0280122E0420E511CF801A080EC
S1130CC0B18036FE03C0692D70E002C06FEF7FEF84
S1130CD0C5010E948D074C01F32DF0683F2E82015F
S1130CE033FC1BC0822D90E088169906B0F4B6013F
S1130CF080E290E00E94A3072A94F4CFF50137FC28
S1130D00859137FE81915F01B60190E00E94A307AF
S1130D1021102A9421E0821A91088114910471F718
S1130D20E8C0843611F0893641F5F80137FE07C072
S1130D3060817181828193810C5F1F4F08C0608143
S1130D407181072E000C880B990B0E5F1F4FF32D3A
S1130D50FF763F2E97FF09C0909580957095619519
S1130D607F4F8F4F9F4FF0683F2E2AE030E0A30162
S1130D700E94DF07882E861845C0853731F4232D5D
S1130D802F7EB22E2AE030E025C0932D997FB92E14
S1130D908F36C1F018F4883579F0B5C0803719F072
S1130DA0883721F0B0C0E92FE061BE2EB4FE0DC03B
S1130DB0FB2DF460BF2E09C034FE0AC0292F266023
S1130DC0B22E06C028E030E005C020E130E002C0C9
S1130DD020E132E0F801B7FE07C0608171818281B1
S1130DE093810C5F1F4F06C06081718180E090E0A9
S1130DF00E5F1F4FA3010E94DF07882E8618FB2D6C
S1130E00FF773F2E36FE0DC0232D2E7FA22E891490
S1130E1058F434FE0BC032FC09C0832D8E7EA82EFC
S1130E2005C0B82CA32C03C0B82C01C0B92CA4FE57
S1130E300FC0FE01E80DF11D8081803321F49A2D4D
S1130E40997EA92E09C0A2FE06C0B394B39404C02F
S1130E508A2D867809F0B394A3FC11C0A0FE06C0C5
S1130E60B21488F4280C922C9B180EC0B21460F4AF
S1130E70B60180E290E00E94A307B394F7CFB214C6
S1130E8018F42B1802C0982C212CA4FE10C0B60113
S1130E9080E390E00E94A307A2FE17C0A1FC03C058
S1130EA088E790E002C088E590E0B6010CC08A2D86
S1130EB0867859F0A1FE02C08BE201C080E2A7FC53
S1130EC08DE2B60190E00E94A307891438F4B601BC
S1130ED080E390E00E94A3079A94F7CF8A94F301E9
S1130EE0E80DF11D8081B60190E00E94A3078110F6
S1130EF0F5CF222009F442CEB60180E290E00E94B0
S1130F00A3072A94F6CFF6018681978102C08FEF5A
S1130F109FEF2B96E2E10C945908FC010590615077
S1130F2070400110D8F7809590958E0F9F1F0895FB
S1130F30FC016150704001900110D8F780959095A4
S1130F408E0F9F1F08950F931F93CF93DF93FB0181
S1130F50238121FD03C08FEF9FEF2CC022FF16C019
S1130F6046815781248135814217530744F4A08177
S1130F70B1819D012F5F3F4F318320838C93268164
S1130F8037812F5F3F4F3783268314C08B01EC01D9
S1130F90FB010084F185E02D0995892BE1F6D80148
S1130FA016968D919C911797019617969C938E9304
S1130FB01697CE01DF91CF911F910F910895FA01F9
S1130FC0AA27283051F1203181F1E8946F936E7F84
S1130FD06E5F7F4F8F4F9F4FAF4FB1E03ED0B4E075
S1130FE03CD0670F781F891F9A1FA11D680F791FB6
S1130FF08A1F911DA11D6A0F711D811D911DA11DC7
S113100020D009F468943F912AE0269F11243019D6
S1131010305D3193DEF6CF010895462F4770405D71
S11310204193B3E00FD0C9F7F6CF462F4F70405D20
S11310304A3318F0495D31FD4052419302D0A9F77B
S1131040EACFB4E0A6959795879577956795BA9575
S1131050C9F700976105710508959B01AC010A2E3B
S113106006945795479537952795BA95C9F7620F12
S1131070731F841F951FA01D08952F923F924F92B6
S11310805F926F927F928F929F92AF92BF92CF9214
S1131090DF92EF92FF920F931F93CF93DF93CDB71D
S11310A0DEB7CA1BDB0B0FB6F894DEBF0FBECDBF95
S11310B009942A88398848885F846E847D848C8466
S11310C09B84AA84B984C884DF80EE80FD800C816F
S11310D01B81AA81B981CE0FD11D0FB6F894DEBF52
S10F10E00FBECDBFED010895F894FFCFC2
S11310EC3738392F3435362A3132332D4330252BCA
S10F10FC25640007060503050403020038
S9030000FC
